{
  "_format": "hh-sol-artifact-1",
  "contractName": "MedChain",
  "sourceName": "contracts/MedChain.sol",
  "abi": [
    {
      "anonymous": false,
      "inputs": [
        {
          "indexed": true,
          "internalType": "address",
          "name": "patient",
          "type": "address"
        },
        {
          "indexed": true,
          "internalType": "address",
          "name": "provider",
          "type": "address"
        }
      ],
      "name": "AccessGranted",
      "type": "event"
    },
    {
      "anonymous": false,
      "inputs": [
        {
          "indexed": true,
          "internalType": "address",
          "name": "patient",
          "type": "address"
        },
        {
          "indexed": true,
          "internalType": "address",
          "name": "provider",
          "type": "address"
        }
      ],
      "name": "AccessRevoked",
      "type": "event"
    },
    {
      "anonymous": false,
      "inputs": [
        {
          "indexed": true,
          "internalType": "address",
          "name": "patient",
          "type": "address"
        },
        {
          "indexed": false,
          "internalType": "string",
          "name": "recordHash",
          "type": "string"
        }
      ],
      "name": "RecordAdded",
      "type": "event"
    },
    {
      "inputs": [
        {
          "internalType": "string",
          "name": "recordHash",
          "type": "string"
        }
      ],
      "name": "addRecord",
      "outputs": [],
      "stateMutability": "nonpayable",
      "type": "function"
    },
    {
      "inputs": [
        {
          "internalType": "address",
          "name": "provider",
          "type": "address"
        }
      ],
      "name": "grantAccess",
      "outputs": [],
      "stateMutability": "nonpayable",
      "type": "function"
    },
    {
      "inputs": [],
      "name": "listProvidersWithAccess",
      "outputs": [
        {
          "internalType": "address[]",
          "name": "",
          "type": "address[]"
        }
      ],
      "stateMutability": "view",
      "type": "function"
    },
    {
      "inputs": [
        {
          "internalType": "string",
          "name": "name",
          "type": "string"
        }
      ],
      "name": "registerPatient",
      "outputs": [],
      "stateMutability": "nonpayable",
      "type": "function"
    },
    {
      "inputs": [
        {
          "internalType": "address",
          "name": "provider",
          "type": "address"
        }
      ],
      "name": "revokeAccess",
      "outputs": [],
      "stateMutability": "nonpayable",
      "type": "function"
    },
    {
      "inputs": [
        {
          "internalType": "address",
          "name": "patientAddress",
          "type": "address"
        }
      ],
      "name": "viewAuditLogs",
      "outputs": [
        {
          "components": [
            {
              "internalType": "address",
              "name": "accessedBy",
              "type": "address"
            },
            {
              "internalType": "string",
              "name": "action",
              "type": "string"
            },
            {
              "internalType": "uint256",
              "name": "timestamp",
              "type": "uint256"
            }
          ],
          "internalType": "struct MedChain.AuditLog[]",
          "name": "",
          "type": "tuple[]"
        }
      ],
      "stateMutability": "view",
      "type": "function"
    },
    {
      "inputs": [
        {
          "internalType": "address",
          "name": "patientAddress",
          "type": "address"
        }
      ],
      "name": "viewRecords",
      "outputs": [
        {
          "internalType": "string[]",
          "name": "",
          "type": "string[]"
        }
      ],
      "stateMutability": "view",
      "type": "function"
    }
  ],
  "bytecode": "0x6080604052348015600f57600080fd5b506126a78061001f6000396000f3fe608060405234801561001057600080fd5b506004361061007d5760003560e01c806385e685311161005b57806385e68531146100ec578063869c9eaf14610108578063d81aa8c414610124578063f9fbef2d146101405761007d565b80630ae5e739146100825780632b4717f01461009e5780637a519672146100bc575b600080fd5b61009c60048036038101906100979190611928565b610170565b005b6100a6610640565b6040516100b39190611a13565b60405180910390f35b6100d660048036038101906100d19190611928565b6107da565b6040516100e39190611b87565b60405180910390f35b61010660048036038101906101019190611928565b6109f3565b005b610122600480360381019061011d9190611cde565b610fe8565b005b61013e60048036038101906101399190611cde565b61123e565b005b61015a60048036038101906101559190611928565b61154d565b6040516101679190611e52565b60405180910390f35b6000803373ffffffffffffffffffffffffffffffffffffffff1673ffffffffffffffffffffffffffffffffffffffff16815260200190815260200160002060000160009054906101000a900473ffffffffffffffffffffffffffffffffffffffff1673ffffffffffffffffffffffffffffffffffffffff163373ffffffffffffffffffffffffffffffffffffffff161461023f576040517f08c379a000000000000000000000000000000000000000000000000000000000815260040161023690611ed1565b60405180910390fd5b600073ffffffffffffffffffffffffffffffffffffffff168173ffffffffffffffffffffffffffffffffffffffff16036102ae576040517f08c379a00000000000000000000000000000000000000000000000000000000081526004016102a590611f3d565b60405180910390fd5b600160003373ffffffffffffffffffffffffffffffffffffffff1673ffffffffffffffffffffffffffffffffffffffff16815260200190815260200160002060008273ffffffffffffffffffffffffffffffffffffffff1673ffffffffffffffffffffffffffffffffffffffff16815260200190815260200160002060009054906101000a900460ff1615610378576040517f08c379a000000000000000000000000000000000000000000000000000000000815260040161036f90611fa9565b60405180910390fd5b60018060003373ffffffffffffffffffffffffffffffffffffffff1673ffffffffffffffffffffffffffffffffffffffff16815260200190815260200160002060008373ffffffffffffffffffffffffffffffffffffffff1673ffffffffffffffffffffffffffffffffffffffff16815260200190815260200160002060006101000a81548160ff021916908315150217905550600360003373ffffffffffffffffffffffffffffffffffffffff1673ffffffffffffffffffffffffffffffffffffffff168152602001908152602001600020819080600181540180825580915050600190039060005260206000200160009091909190916101000a81548173ffffffffffffffffffffffffffffffffffffffff021916908373ffffffffffffffffffffffffffffffffffffffff160217905550600260003373ffffffffffffffffffffffffffffffffffffffff1673ffffffffffffffffffffffffffffffffffffffff16815260200190815260200160002060405180606001604052808373ffffffffffffffffffffffffffffffffffffffff1681526020016040518060400160405280600e81526020017f416363657373204772616e746564000000000000000000000000000000000000815250815260200142815250908060018154018082558091505060019003906000526020600020906003020160009091909190915060008201518160000160006101000a81548173ffffffffffffffffffffffffffffffffffffffff021916908373ffffffffffffffffffffffffffffffffffffffff16021790555060208201518160010190816105d691906121d5565b506040820151816002015550508073ffffffffffffffffffffffffffffffffffffffff163373ffffffffffffffffffffffffffffffffffffffff167f9f520b3bfc56d06f7065d10b4683b3f57ac8895d5026cd176dee95ce1454cb8d60405160405180910390a350565b60606000803373ffffffffffffffffffffffffffffffffffffffff1673ffffffffffffffffffffffffffffffffffffffff16815260200190815260200160002060000160009054906101000a900473ffffffffffffffffffffffffffffffffffffffff1673ffffffffffffffffffffffffffffffffffffffff163373ffffffffffffffffffffffffffffffffffffffff1614610711576040517f08c379a000000000000000000000000000000000000000000000000000000000815260040161070890611ed1565b60405180910390fd5b600360003373ffffffffffffffffffffffffffffffffffffffff1673ffffffffffffffffffffffffffffffffffffffff1681526020019081526020016000208054806020026020016040519081016040528092919081815260200182805480156107d057602002820191906000526020600020905b8160009054906101000a900473ffffffffffffffffffffffffffffffffffffffff1673ffffffffffffffffffffffffffffffffffffffff1681526020019060010190808311610786575b5050505050905090565b6060600160008373ffffffffffffffffffffffffffffffffffffffff1673ffffffffffffffffffffffffffffffffffffffff16815260200190815260200160002060003373ffffffffffffffffffffffffffffffffffffffff1673ffffffffffffffffffffffffffffffffffffffff16815260200190815260200160002060009054906101000a900460ff168061089c57508173ffffffffffffffffffffffffffffffffffffffff163373ffffffffffffffffffffffffffffffffffffffff16145b6108db576040517f08c379a00000000000000000000000000000000000000000000000000000000081526004016108d2906122f3565b60405180910390fd5b6000808373ffffffffffffffffffffffffffffffffffffffff1673ffffffffffffffffffffffffffffffffffffffff168152602001908152602001600020600201805480602002602001604051908101604052809291908181526020016000905b828210156109e857838290600052602060002001805461095b90611ff8565b80601f016020809104026020016040519081016040528092919081815260200182805461098790611ff8565b80156109d45780601f106109a9576101008083540402835291602001916109d4565b820191906000526020600020905b8154815290600101906020018083116109b757829003601f168201915b50505050508152602001906001019061093c565b505050509050919050565b6000803373ffffffffffffffffffffffffffffffffffffffff1673ffffffffffffffffffffffffffffffffffffffff16815260200190815260200160002060000160009054906101000a900473ffffffffffffffffffffffffffffffffffffffff1673ffffffffffffffffffffffffffffffffffffffff163373ffffffffffffffffffffffffffffffffffffffff1614610ac2576040517f08c379a0000000000000000000000000000000000000000000000000000000008152600401610ab990611ed1565b60405180910390fd5b600073ffffffffffffffffffffffffffffffffffffffff168173ffffffffffffffffffffffffffffffffffffffff1603610b31576040517f08c379a0000000000000000000000000000000000000000000000000000000008152600401610b2890611f3d565b60405180910390fd5b600160003373ffffffffffffffffffffffffffffffffffffffff1673ffffffffffffffffffffffffffffffffffffffff16815260200190815260200160002060008273ffffffffffffffffffffffffffffffffffffffff1673ffffffffffffffffffffffffffffffffffffffff16815260200190815260200160002060009054906101000a900460ff16610bfa576040517f08c379a0000000000000000000000000000000000000000000000000000000008152600401610bf19061235f565b60405180910390fd5b6000600160003373ffffffffffffffffffffffffffffffffffffffff1673ffffffffffffffffffffffffffffffffffffffff16815260200190815260200160002060008373ffffffffffffffffffffffffffffffffffffffff1673ffffffffffffffffffffffffffffffffffffffff16815260200190815260200160002060006101000a81548160ff0219169083151502179055506000600360003373ffffffffffffffffffffffffffffffffffffffff1673ffffffffffffffffffffffffffffffffffffffff168152602001908152602001600020905060005b8180549050811015610e52578273ffffffffffffffffffffffffffffffffffffffff16828281548110610d0b57610d0a61237f565b5b9060005260206000200160009054906101000a900473ffffffffffffffffffffffffffffffffffffffff1673ffffffffffffffffffffffffffffffffffffffff1603610e45578160018380549050610d6391906123dd565b81548110610d7457610d7361237f565b5b9060005260206000200160009054906101000a900473ffffffffffffffffffffffffffffffffffffffff16828281548110610db257610db161237f565b5b9060005260206000200160006101000a81548173ffffffffffffffffffffffffffffffffffffffff021916908373ffffffffffffffffffffffffffffffffffffffff16021790555081805480610e0b57610e0a612411565b5b6001900381819060005260206000200160006101000a81549073ffffffffffffffffffffffffffffffffffffffff02191690559055610e52565b8080600101915050610cd5565b50600260003373ffffffffffffffffffffffffffffffffffffffff1673ffffffffffffffffffffffffffffffffffffffff16815260200190815260200160002060405180606001604052808473ffffffffffffffffffffffffffffffffffffffff1681526020016040518060400160405280600e81526020017f416363657373205265766f6b6564000000000000000000000000000000000000815250815260200142815250908060018154018082558091505060019003906000526020600020906003020160009091909190915060008201518160000160006101000a81548173ffffffffffffffffffffffffffffffffffffffff021916908373ffffffffffffffffffffffffffffffffffffffff1602179055506020820151816001019081610f7d91906121d5565b506040820151816002015550508173ffffffffffffffffffffffffffffffffffffffff163373ffffffffffffffffffffffffffffffffffffffff167f825c8be24eb0df19500f63e86c29e7d0d951e73056b889b891d85e40938d9b6e60405160405180910390a35050565b600081511161102c576040517f08c379a00000000000000000000000000000000000000000000000000000000081526004016110239061248c565b60405180910390fd5b600073ffffffffffffffffffffffffffffffffffffffff166000803373ffffffffffffffffffffffffffffffffffffffff1673ffffffffffffffffffffffffffffffffffffffff16815260200190815260200160002060000160009054906101000a900473ffffffffffffffffffffffffffffffffffffffff1673ffffffffffffffffffffffffffffffffffffffff16146110fc576040517f08c379a00000000000000000000000000000000000000000000000000000000081526004016110f3906124f8565b60405180910390fd5b60008067ffffffffffffffff81111561111857611117611bb3565b5b60405190808252806020026020018201604052801561114b57816020015b60608152602001906001900390816111365790505b50905060405180606001604052803373ffffffffffffffffffffffffffffffffffffffff168152602001838152602001828152506000803373ffffffffffffffffffffffffffffffffffffffff1673ffffffffffffffffffffffffffffffffffffffff16815260200190815260200160002060008201518160000160006101000a81548173ffffffffffffffffffffffffffffffffffffffff021916908373ffffffffffffffffffffffffffffffffffffffff160217905550602082015181600101908161121991906121d5565b5060408201518160020190805190602001906112369291906117dc565b509050505050565b6000803373ffffffffffffffffffffffffffffffffffffffff1673ffffffffffffffffffffffffffffffffffffffff16815260200190815260200160002060000160009054906101000a900473ffffffffffffffffffffffffffffffffffffffff1673ffffffffffffffffffffffffffffffffffffffff163373ffffffffffffffffffffffffffffffffffffffff161461130d576040517f08c379a000000000000000000000000000000000000000000000000000000000815260040161130490611ed1565b60405180910390fd5b6000815111611351576040517f08c379a000000000000000000000000000000000000000000000000000000000815260040161134890612564565b60405180910390fd5b6000803373ffffffffffffffffffffffffffffffffffffffff1673ffffffffffffffffffffffffffffffffffffffff168152602001908152602001600020600201819080600181540180825580915050600190039060005260206000200160009091909190915090816113c491906121d5565b50600260003373ffffffffffffffffffffffffffffffffffffffff1673ffffffffffffffffffffffffffffffffffffffff16815260200190815260200160002060405180606001604052803373ffffffffffffffffffffffffffffffffffffffff1681526020016040518060400160405280600c81526020017f4164646564205265636f72640000000000000000000000000000000000000000815250815260200142815250908060018154018082558091505060019003906000526020600020906003020160009091909190915060008201518160000160006101000a81548173ffffffffffffffffffffffffffffffffffffffff021916908373ffffffffffffffffffffffffffffffffffffffff16021790555060208201518160010190816114ef91906121d5565b506040820151816002015550503373ffffffffffffffffffffffffffffffffffffffff167f44626cfec8a165f72396cc5e247c6b96279f8c205a8d07c390df7aa5806205fa8260405161154291906125bd565b60405180910390a250565b60608173ffffffffffffffffffffffffffffffffffffffff163373ffffffffffffffffffffffffffffffffffffffff16148061160f5750600160008373ffffffffffffffffffffffffffffffffffffffff1673ffffffffffffffffffffffffffffffffffffffff16815260200190815260200160002060003373ffffffffffffffffffffffffffffffffffffffff1673ffffffffffffffffffffffffffffffffffffffff16815260200190815260200160002060009054906101000a900460ff165b61164e576040517f08c379a000000000000000000000000000000000000000000000000000000000815260040161164590612651565b60405180910390fd5b600260008373ffffffffffffffffffffffffffffffffffffffff1673ffffffffffffffffffffffffffffffffffffffff168152602001908152602001600020805480602002602001604051908101604052809291908181526020016000905b828210156117d157838290600052602060002090600302016040518060600160405290816000820160009054906101000a900473ffffffffffffffffffffffffffffffffffffffff1673ffffffffffffffffffffffffffffffffffffffff1673ffffffffffffffffffffffffffffffffffffffff16815260200160018201805461173690611ff8565b80601f016020809104026020016040519081016040528092919081815260200182805461176290611ff8565b80156117af5780601f10611784576101008083540402835291602001916117af565b820191906000526020600020905b81548152906001019060200180831161179257829003601f168201915b50505050508152602001600282015481525050815260200190600101906116ad565b505050509050919050565b828054828255906000526020600020908101928215611824579160200282015b8281111561182357825182908161181391906121d5565b50916020019190600101906117fc565b5b5090506118319190611835565b5090565b5b80821115611855576000818161184c9190611859565b50600101611836565b5090565b50805461186590611ff8565b6000825580601f106118775750611896565b601f0160209004906000526020600020908101906118959190611899565b5b50565b5b808211156118b257600081600090555060010161189a565b5090565b6000604051905090565b600080fd5b600080fd5b600073ffffffffffffffffffffffffffffffffffffffff82169050919050565b60006118f5826118ca565b9050919050565b611905816118ea565b811461191057600080fd5b50565b600081359050611922816118fc565b92915050565b60006020828403121561193e5761193d6118c0565b5b600061194c84828501611913565b91505092915050565b600081519050919050565b600082825260208201905092915050565b6000819050602082019050919050565b61198a816118ea565b82525050565b600061199c8383611981565b60208301905092915050565b6000602082019050919050565b60006119c082611955565b6119ca8185611960565b93506119d583611971565b8060005b83811015611a065781516119ed8882611990565b97506119f8836119a8565b9250506001810190506119d9565b5085935050505092915050565b60006020820190508181036000830152611a2d81846119b5565b905092915050565b600081519050919050565b600082825260208201905092915050565b6000819050602082019050919050565b600081519050919050565b600082825260208201905092915050565b60005b83811015611a9b578082015181840152602081019050611a80565b60008484015250505050565b6000601f19601f8301169050919050565b6000611ac382611a61565b611acd8185611a6c565b9350611add818560208601611a7d565b611ae681611aa7565b840191505092915050565b6000611afd8383611ab8565b905092915050565b6000602082019050919050565b6000611b1d82611a35565b611b278185611a40565b935083602082028501611b3985611a51565b8060005b85811015611b755784840389528151611b568582611af1565b9450611b6183611b05565b925060208a01995050600181019050611b3d565b50829750879550505050505092915050565b60006020820190508181036000830152611ba18184611b12565b905092915050565b600080fd5b600080fd5b7f4e487b7100000000000000000000000000000000000000000000000000000000600052604160045260246000fd5b611beb82611aa7565b810181811067ffffffffffffffff82111715611c0a57611c09611bb3565b5b80604052505050565b6000611c1d6118b6565b9050611c298282611be2565b919050565b600067ffffffffffffffff821115611c4957611c48611bb3565b5b611c5282611aa7565b9050602081019050919050565b82818337600083830152505050565b6000611c81611c7c84611c2e565b611c13565b905082815260208101848484011115611c9d57611c9c611bae565b5b611ca8848285611c5f565b509392505050565b600082601f830112611cc557611cc4611ba9565b5b8135611cd5848260208601611c6e565b91505092915050565b600060208284031215611cf457611cf36118c0565b5b600082013567ffffffffffffffff811115611d1257611d116118c5565b5b611d1e84828501611cb0565b91505092915050565b600081519050919050565b600082825260208201905092915050565b6000819050602082019050919050565b6000819050919050565b611d6681611d53565b82525050565b6000606083016000830151611d846000860182611981565b5060208301518482036020860152611d9c8282611ab8565b9150506040830151611db16040860182611d5d565b508091505092915050565b6000611dc88383611d6c565b905092915050565b6000602082019050919050565b6000611de882611d27565b611df28185611d32565b935083602082028501611e0485611d43565b8060005b85811015611e405784840389528151611e218582611dbc565b9450611e2c83611dd0565b925060208a01995050600181019050611e08565b50829750879550505050505092915050565b60006020820190508181036000830152611e6c8184611ddd565b905092915050565b600082825260208201905092915050565b7f4e6f7420617574686f72697a6564000000000000000000000000000000000000600082015250565b6000611ebb600e83611e74565b9150611ec682611e85565b602082019050919050565b60006020820190508181036000830152611eea81611eae565b9050919050565b7f496e76616c69642070726f766964657220616464726573730000000000000000600082015250565b6000611f27601883611e74565b9150611f3282611ef1565b602082019050919050565b60006020820190508181036000830152611f5681611f1a565b9050919050565b7f41636365737320616c7265616479206772616e74656400000000000000000000600082015250565b6000611f93601683611e74565b9150611f9e82611f5d565b602082019050919050565b60006020820190508181036000830152611fc281611f86565b9050919050565b7f4e487b7100000000000000000000000000000000000000000000000000000000600052602260045260246000fd5b6000600282049050600182168061201057607f821691505b60208210810361202357612022611fc9565b5b50919050565b60008190508160005260206000209050919050565b60006020601f8301049050919050565b600082821b905092915050565b60006008830261208b7fffffffffffffffffffffffffffffffffffffffffffffffffffffffffffffffff8261204e565b612095868361204e565b95508019841693508086168417925050509392505050565b6000819050919050565b60006120d26120cd6120c884611d53565b6120ad565b611d53565b9050919050565b6000819050919050565b6120ec836120b7565b6121006120f8826120d9565b84845461205b565b825550505050565b600090565b612115612108565b6121208184846120e3565b505050565b5b818110156121445761213960008261210d565b600181019050612126565b5050565b601f8211156121895761215a81612029565b6121638461203e565b81016020851015612172578190505b61218661217e8561203e565b830182612125565b50505b505050565b600082821c905092915050565b60006121ac6000198460080261218e565b1980831691505092915050565b60006121c5838361219b565b9150826002028217905092915050565b6121de82611a61565b67ffffffffffffffff8111156121f7576121f6611bb3565b5b6122018254611ff8565b61220c828285612148565b600060209050601f83116001811461223f576000841561222d578287015190505b61223785826121b9565b86555061229f565b601f19841661224d86612029565b60005b8281101561227557848901518255600182019150602085019450602081019050612250565b86831015612292578489015161228e601f89168261219b565b8355505b6001600288020188555050505b505050505050565b7f4163636573732064656e69656400000000000000000000000000000000000000600082015250565b60006122dd600d83611e74565b91506122e8826122a7565b602082019050919050565b6000602082019050818103600083015261230c816122d0565b9050919050565b7f416363657373206e6f74206772616e7465640000000000000000000000000000600082015250565b6000612349601283611e74565b915061235482612313565b602082019050919050565b600060208201905081810360008301526123788161233c565b9050919050565b7f4e487b7100000000000000000000000000000000000000000000000000000000600052603260045260246000fd5b7f4e487b7100000000000000000000000000000000000000000000000000000000600052601160045260246000fd5b60006123e882611d53565b91506123f383611d53565b925082820390508181111561240b5761240a6123ae565b5b92915050565b7f4e487b7100000000000000000000000000000000000000000000000000000000600052603160045260246000fd5b7f4e616d652063616e6e6f7420626520656d707479000000000000000000000000600082015250565b6000612476601483611e74565b915061248182612440565b602082019050919050565b600060208201905081810360008301526124a581612469565b9050919050565b7f50617469656e7420616c72656164792072656769737465726564000000000000600082015250565b60006124e2601a83611e74565b91506124ed826124ac565b602082019050919050565b60006020820190508181036000830152612511816124d5565b9050919050565b7f5265636f726420686173682063616e6e6f7420626520656d7074790000000000600082015250565b600061254e601b83611e74565b915061255982612518565b602082019050919050565b6000602082019050818103600083015261257d81612541565b9050919050565b600061258f82611a61565b6125998185611e74565b93506125a9818560208601611a7d565b6125b281611aa7565b840191505092915050565b600060208201905081810360008301526125d78184612584565b905092915050565b7f4e6f7420617574686f72697a656420746f2076696577206175646974206c6f6760008201527f7300000000000000000000000000000000000000000000000000000000000000602082015250565b600061263b602183611e74565b9150612646826125df565b604082019050919050565b6000602082019050818103600083015261266a8161262e565b905091905056fea264697066735822122062359c0e4b1229f6a2e35dc3ec61c43faa39ce75dc57492c6499a337a281575264736f6c634300081b0033",
  "linkReferences": {},
  "deployedLinkReferences": {}
}